{
  "contractName": "BrainGame",
  "abi": [
    {
      "inputs": [
        {
          "internalType": "address",
          "name": "_brainTokens",
          "type": "address"
        }
      ],
      "stateMutability": "nonpayable",
      "type": "constructor"
    },
    {
      "anonymous": false,
      "inputs": [
        {
          "indexed": true,
          "internalType": "address",
          "name": "previousOwner",
          "type": "address"
        },
        {
          "indexed": true,
          "internalType": "address",
          "name": "newOwner",
          "type": "address"
        }
      ],
      "name": "OwnershipTransferred",
      "type": "event"
    },
    {
      "inputs": [],
      "name": "brainTokens",
      "outputs": [
        {
          "internalType": "contract IERC20",
          "name": "",
          "type": "address"
        }
      ],
      "stateMutability": "view",
      "type": "function",
      "constant": true
    },
    {
      "inputs": [],
      "name": "owner",
      "outputs": [
        {
          "internalType": "address",
          "name": "",
          "type": "address"
        }
      ],
      "stateMutability": "view",
      "type": "function",
      "constant": true
    },
    {
      "inputs": [],
      "name": "renounceOwnership",
      "outputs": [],
      "stateMutability": "nonpayable",
      "type": "function"
    },
    {
      "inputs": [
        {
          "internalType": "address",
          "name": "newOwner",
          "type": "address"
        }
      ],
      "name": "transferOwnership",
      "outputs": [],
      "stateMutability": "nonpayable",
      "type": "function"
    },
    {
      "inputs": [
        {
          "internalType": "uint256",
          "name": "_tokenAmount",
          "type": "uint256"
        }
      ],
      "name": "claimReward",
      "outputs": [],
      "stateMutability": "nonpayable",
      "type": "function"
    },
    {
      "inputs": [
        {
          "internalType": "address",
          "name": "_inquiredAddress",
          "type": "address"
        }
      ],
      "name": "getBalanceOf",
      "outputs": [
        {
          "internalType": "uint256",
          "name": "",
          "type": "uint256"
        }
      ],
      "stateMutability": "view",
      "type": "function",
      "constant": true
    }
  ],
  "bytecode": "0x608060405234801561001057600080fd5b50604051610b70380380610b70833981810160405281019061003291906101c4565b61004e61004361009560201b60201c565b61009d60201b60201c565b80600160006101000a81548173ffffffffffffffffffffffffffffffffffffffff021916908373ffffffffffffffffffffffffffffffffffffffff160217905550506101f1565b600033905090565b60008060009054906101000a900473ffffffffffffffffffffffffffffffffffffffff169050816000806101000a81548173ffffffffffffffffffffffffffffffffffffffff021916908373ffffffffffffffffffffffffffffffffffffffff1602179055508173ffffffffffffffffffffffffffffffffffffffff168173ffffffffffffffffffffffffffffffffffffffff167f8be0079c531659141344cd1fd0a4f28419497f9722a3daafe3b4186f6b6457e060405160405180910390a35050565b600080fd5b600073ffffffffffffffffffffffffffffffffffffffff82169050919050565b600061019182610166565b9050919050565b6101a181610186565b81146101ac57600080fd5b50565b6000815190506101be81610198565b92915050565b6000602082840312156101da576101d9610161565b5b60006101e8848285016101af565b91505092915050565b610970806102006000396000f3fe608060405234801561001057600080fd5b50600436106100625760003560e01c8063705027f614610067578063715018a6146100855780638da5cb5b1461008f5780639b96eece146100ad578063ae169a50146100dd578063f2fde38b146100f9575b600080fd5b61006f610115565b60405161007c9190610590565b60405180910390f35b61008d61013b565b005b6100976101c3565b6040516100a491906105cc565b60405180910390f35b6100c760048036038101906100c29190610618565b6101ec565b6040516100d4919061065e565b60405180910390f35b6100f760048036038101906100f291906106a5565b610296565b005b610113600480360381019061010e9190610618565b61034d565b005b600160009054906101000a900473ffffffffffffffffffffffffffffffffffffffff1681565b610143610445565b73ffffffffffffffffffffffffffffffffffffffff166101616101c3565b73ffffffffffffffffffffffffffffffffffffffff16146101b7576040517f08c379a00000000000000000000000000000000000000000000000000000000081526004016101ae9061072f565b60405180910390fd5b6101c1600061044d565b565b60008060009054906101000a900473ffffffffffffffffffffffffffffffffffffffff16905090565b600080600160009054906101000a900473ffffffffffffffffffffffffffffffffffffffff1673ffffffffffffffffffffffffffffffffffffffff166370a08231846040518263ffffffff1660e01b815260040161024a91906105cc565b602060405180830381865afa158015610267573d6000803e3d6000fd5b505050506040513d601f19601f8201168201806040525081019061028b9190610764565b905080915050919050565b600160009054906101000a900473ffffffffffffffffffffffffffffffffffffffff1673ffffffffffffffffffffffffffffffffffffffff1663a9059cbb33670de0b6b3a7640000846102e991906107c0565b6040518363ffffffff1660e01b815260040161030692919061081a565b6020604051808303816000875af1158015610325573d6000803e3d6000fd5b505050506040513d601f19601f82011682018060405250810190610349919061087b565b5050565b610355610445565b73ffffffffffffffffffffffffffffffffffffffff166103736101c3565b73ffffffffffffffffffffffffffffffffffffffff16146103c9576040517f08c379a00000000000000000000000000000000000000000000000000000000081526004016103c09061072f565b60405180910390fd5b600073ffffffffffffffffffffffffffffffffffffffff168173ffffffffffffffffffffffffffffffffffffffff161415610439576040517f08c379a00000000000000000000000000000000000000000000000000000000081526004016104309061091a565b60405180910390fd5b6104428161044d565b50565b600033905090565b60008060009054906101000a900473ffffffffffffffffffffffffffffffffffffffff169050816000806101000a81548173ffffffffffffffffffffffffffffffffffffffff021916908373ffffffffffffffffffffffffffffffffffffffff1602179055508173ffffffffffffffffffffffffffffffffffffffff168173ffffffffffffffffffffffffffffffffffffffff167f8be0079c531659141344cd1fd0a4f28419497f9722a3daafe3b4186f6b6457e060405160405180910390a35050565b600073ffffffffffffffffffffffffffffffffffffffff82169050919050565b6000819050919050565b600061055661055161054c84610511565b610531565b610511565b9050919050565b60006105688261053b565b9050919050565b600061057a8261055d565b9050919050565b61058a8161056f565b82525050565b60006020820190506105a56000830184610581565b92915050565b60006105b682610511565b9050919050565b6105c6816105ab565b82525050565b60006020820190506105e160008301846105bd565b92915050565b600080fd5b6105f5816105ab565b811461060057600080fd5b50565b600081359050610612816105ec565b92915050565b60006020828403121561062e5761062d6105e7565b5b600061063c84828501610603565b91505092915050565b6000819050919050565b61065881610645565b82525050565b6000602082019050610673600083018461064f565b92915050565b61068281610645565b811461068d57600080fd5b50565b60008135905061069f81610679565b92915050565b6000602082840312156106bb576106ba6105e7565b5b60006106c984828501610690565b91505092915050565b600082825260208201905092915050565b7f4f776e61626c653a2063616c6c6572206973206e6f7420746865206f776e6572600082015250565b60006107196020836106d2565b9150610724826106e3565b602082019050919050565b600060208201905081810360008301526107488161070c565b9050919050565b60008151905061075e81610679565b92915050565b60006020828403121561077a576107796105e7565b5b60006107888482850161074f565b91505092915050565b7f4e487b7100000000000000000000000000000000000000000000000000000000600052601160045260246000fd5b60006107cb82610645565b91506107d683610645565b9250817fffffffffffffffffffffffffffffffffffffffffffffffffffffffffffffffff048311821515161561080f5761080e610791565b5b828202905092915050565b600060408201905061082f60008301856105bd565b61083c602083018461064f565b9392505050565b60008115159050919050565b61085881610843565b811461086357600080fd5b50565b6000815190506108758161084f565b92915050565b600060208284031215610891576108906105e7565b5b600061089f84828501610866565b91505092915050565b7f4f776e61626c653a206e6577206f776e657220697320746865207a65726f206160008201527f6464726573730000000000000000000000000000000000000000000000000000602082015250565b60006109046026836106d2565b915061090f826108a8565b604082019050919050565b60006020820190508181036000830152610933816108f7565b905091905056fea2646970667358221220f0c1c9a1ac80b0b70d54486f0dd1dd18a45949b2b0bb478baeaf83e8c0f9660b64736f6c634300080c0033",
  "immutableReferences": {},
  "source": "// SPDX-License-Identifier: MIT\npragma solidity ^0.8.12;\n\nimport \"@openzeppelin/contracts/token/ERC20/IERC20.sol\";\nimport \"@openzeppelin/contracts/access/Ownable.sol\";\n\ncontract BrainGame is Ownable {\n    IERC20 public brainTokens;\n\n    constructor(address _brainTokens) {\n        brainTokens = IERC20(_brainTokens);\n    }\n\n    function claimReward(uint256 _tokenAmount) public{\n        brainTokens.transfer(msg.sender, _tokenAmount * 10**18);\n    }\n\n    function getBalanceOf(address _inquiredAddress) public view returns(uint256){\n        uint256 balance = brainTokens.balanceOf(_inquiredAddress);\n        return balance;\n    }\n}",
  "sourcePath": "/Users/irenechow/Desktop/blockchain-learning/brain-game-v2/contracts/BrainGame.sol",
  "compiler": {
    "name": "solc",
    "version": "0.8.12+commit.f00d7308.Emscripten.clang"
  },
  "schemaVersion": "3.4.6",
  "updatedAt": "2022-05-19T16:18:04.696Z",
  "networkType": "ethereum",
  "devdoc": {
    "kind": "dev",
    "methods": {
      "owner()": {
        "details": "Returns the address of the current owner."
      },
      "renounceOwnership()": {
        "details": "Leaves the contract without owner. It will not be possible to call `onlyOwner` functions anymore. Can only be called by the current owner. NOTE: Renouncing ownership will leave the contract without an owner, thereby removing any functionality that is only available to the owner."
      },
      "transferOwnership(address)": {
        "details": "Transfers ownership of the contract to a new account (`newOwner`). Can only be called by the current owner."
      }
    },
    "version": 1
  },
  "userdoc": {
    "kind": "user",
    "methods": {},
    "version": 1
  }
}